{
  "_format": "hh-sol-artifact-1",
  "contractName": "DFAEvidenceStorage",
  "sourceName": "contracts/DFAEvidenceStorage.sol",
  "abi": [
    {
      "inputs": [
        {
          "internalType": "bytes32",
          "name": "idHash",
          "type": "bytes32"
        },
        {
          "internalType": "bytes32",
          "name": "pwHash",
          "type": "bytes32"
        },
        {
          "internalType": "bytes32",
          "name": "scHash",
          "type": "bytes32"
        }
      ],
      "name": "authenticate",
      "outputs": [
        {
          "internalType": "bool",
          "name": "",
          "type": "bool"
        }
      ],
      "stateMutability": "view",
      "type": "function"
    },
    {
      "inputs": [],
      "name": "getEvidenceHashes",
      "outputs": [
        {
          "internalType": "string[]",
          "name": "",
          "type": "string[]"
        }
      ],
      "stateMutability": "view",
      "type": "function"
    },
    {
      "inputs": [],
      "name": "getEvidenceTimestamps",
      "outputs": [
        {
          "internalType": "uint256[]",
          "name": "",
          "type": "uint256[]"
        }
      ],
      "stateMutability": "view",
      "type": "function"
    },
    {
      "inputs": [
        {
          "internalType": "bytes32",
          "name": "idHash",
          "type": "bytes32"
        },
        {
          "internalType": "bytes32",
          "name": "pwHash",
          "type": "bytes32"
        },
        {
          "internalType": "bytes32",
          "name": "scHash",
          "type": "bytes32"
        }
      ],
      "name": "register",
      "outputs": [],
      "stateMutability": "nonpayable",
      "type": "function"
    },
    {
      "inputs": [
        {
          "internalType": "string",
          "name": "ipfsHash",
          "type": "string"
        }
      ],
      "name": "storeEvidenceHash",
      "outputs": [],
      "stateMutability": "nonpayable",
      "type": "function"
    },
    {
      "inputs": [
        {
          "internalType": "address",
          "name": "",
          "type": "address"
        }
      ],
      "name": "users",
      "outputs": [
        {
          "internalType": "bytes32",
          "name": "idHash",
          "type": "bytes32"
        },
        {
          "internalType": "bytes32",
          "name": "pwHash",
          "type": "bytes32"
        },
        {
          "internalType": "bytes32",
          "name": "scHash",
          "type": "bytes32"
        }
      ],
      "stateMutability": "view",
      "type": "function"
    }
  ],
  "bytecode": "0x608060405234801561001057600080fd5b50610f67806100206000396000f3fe608060405234801561001057600080fd5b50600436106100625760003560e01c80634da274fd1461006757806374c4b402146100835780637c61a1421461009f57806397be09f2146100bd578063a87430ba146100db578063e596ee4f1461010d575b600080fd5b610081600480360381019061007c9190610677565b61013d565b005b61009d60048036038101906100989190610810565b6101bc565b005b6100a761025e565b6040516100b4919061099a565b60405180910390f35b6100c5610429565b6040516100d29190610a84565b60405180910390f35b6100f560048036038101906100f09190610b04565b610568565b60405161010493929190610b40565b60405180910390f35b61012760048036038101906101229190610677565b610592565b6040516101349190610b92565b60405180910390f35b6040518060600160405280848152602001838152602001828152506000803373ffffffffffffffffffffffffffffffffffffffff1673ffffffffffffffffffffffffffffffffffffffff168152602001908152602001600020600082015181600001556020820151816001015560408201518160020155905050505050565b600160003373ffffffffffffffffffffffffffffffffffffffff1673ffffffffffffffffffffffffffffffffffffffff1681526020019081526020016000206040518060400160405280838152602001428152509080600181540180825580915050600190039060005260206000209060020201600090919091909150600082015181600001908161024e9190610db9565b5060208201518160010155505050565b60606000600160003373ffffffffffffffffffffffffffffffffffffffff1673ffffffffffffffffffffffffffffffffffffffff16815260200190815260200160002080549050905060008167ffffffffffffffff8111156102c3576102c26106e5565b5b6040519080825280602002602001820160405280156102f657816020015b60608152602001906001900390816102e15790505b50905060005b8281101561042057600160003373ffffffffffffffffffffffffffffffffffffffff1673ffffffffffffffffffffffffffffffffffffffff168152602001908152602001600020818154811061035557610354610e8b565b5b9060005260206000209060020201600001805461037190610bdc565b80601f016020809104026020016040519081016040528092919081815260200182805461039d90610bdc565b80156103ea5780601f106103bf576101008083540402835291602001916103ea565b820191906000526020600020905b8154815290600101906020018083116103cd57829003601f168201915b505050505082828151811061040257610401610e8b565b5b6020026020010181905250808061041890610ee9565b9150506102fc565b50809250505090565b60606000600160003373ffffffffffffffffffffffffffffffffffffffff1673ffffffffffffffffffffffffffffffffffffffff16815260200190815260200160002080549050905060008167ffffffffffffffff81111561048e5761048d6106e5565b5b6040519080825280602002602001820160405280156104bc5781602001602082028036833780820191505090505b50905060005b8281101561055f57600160003373ffffffffffffffffffffffffffffffffffffffff1673ffffffffffffffffffffffffffffffffffffffff168152602001908152602001600020818154811061051b5761051a610e8b565b5b9060005260206000209060020201600101548282815181106105405761053f610e8b565b5b602002602001018181525050808061055790610ee9565b9150506104c2565b50809250505090565b60006020528060005260406000206000915090508060000154908060010154908060020154905083565b6000806000803373ffffffffffffffffffffffffffffffffffffffff1673ffffffffffffffffffffffffffffffffffffffff168152602001908152602001600020604051806060016040529081600082015481526020016001820154815260200160028201548152505090508481600001511480156106145750838160200151145b80156106235750828160400151145b9150509392505050565b6000604051905090565b600080fd5b600080fd5b6000819050919050565b61065481610641565b811461065f57600080fd5b50565b6000813590506106718161064b565b92915050565b6000806000606084860312156106905761068f610637565b5b600061069e86828701610662565b93505060206106af86828701610662565b92505060406106c086828701610662565b9150509250925092565b600080fd5b600080fd5b6000601f19601f8301169050919050565b7f4e487b7100000000000000000000000000000000000000000000000000000000600052604160045260246000fd5b61071d826106d4565b810181811067ffffffffffffffff8211171561073c5761073b6106e5565b5b80604052505050565b600061074f61062d565b905061075b8282610714565b919050565b600067ffffffffffffffff82111561077b5761077a6106e5565b5b610784826106d4565b9050602081019050919050565b82818337600083830152505050565b60006107b36107ae84610760565b610745565b9050828152602081018484840111156107cf576107ce6106cf565b5b6107da848285610791565b509392505050565b600082601f8301126107f7576107f66106ca565b5b81356108078482602086016107a0565b91505092915050565b60006020828403121561082657610825610637565b5b600082013567ffffffffffffffff8111156108445761084361063c565b5b610850848285016107e2565b91505092915050565b600081519050919050565b600082825260208201905092915050565b6000819050602082019050919050565b600081519050919050565b600082825260208201905092915050565b60005b838110156108bf5780820151818401526020810190506108a4565b60008484015250505050565b60006108d682610885565b6108e08185610890565b93506108f08185602086016108a1565b6108f9816106d4565b840191505092915050565b600061091083836108cb565b905092915050565b6000602082019050919050565b600061093082610859565b61093a8185610864565b93508360208202850161094c85610875565b8060005b8581101561098857848403895281516109698582610904565b945061097483610918565b925060208a01995050600181019050610950565b50829750879550505050505092915050565b600060208201905081810360008301526109b48184610925565b905092915050565b600081519050919050565b600082825260208201905092915050565b6000819050602082019050919050565b6000819050919050565b6109fb816109e8565b82525050565b6000610a0d83836109f2565b60208301905092915050565b6000602082019050919050565b6000610a31826109bc565b610a3b81856109c7565b9350610a46836109d8565b8060005b83811015610a77578151610a5e8882610a01565b9750610a6983610a19565b925050600181019050610a4a565b5085935050505092915050565b60006020820190508181036000830152610a9e8184610a26565b905092915050565b600073ffffffffffffffffffffffffffffffffffffffff82169050919050565b6000610ad182610aa6565b9050919050565b610ae181610ac6565b8114610aec57600080fd5b50565b600081359050610afe81610ad8565b92915050565b600060208284031215610b1a57610b19610637565b5b6000610b2884828501610aef565b91505092915050565b610b3a81610641565b82525050565b6000606082019050610b556000830186610b31565b610b626020830185610b31565b610b6f6040830184610b31565b949350505050565b60008115159050919050565b610b8c81610b77565b82525050565b6000602082019050610ba76000830184610b83565b92915050565b7f4e487b7100000000000000000000000000000000000000000000000000000000600052602260045260246000fd5b60006002820490506001821680610bf457607f821691505b602082108103610c0757610c06610bad565b5b50919050565b60008190508160005260206000209050919050565b60006020601f8301049050919050565b600082821b905092915050565b600060088302610c6f7fffffffffffffffffffffffffffffffffffffffffffffffffffffffffffffffff82610c32565b610c798683610c32565b95508019841693508086168417925050509392505050565b6000819050919050565b6000610cb6610cb1610cac846109e8565b610c91565b6109e8565b9050919050565b6000819050919050565b610cd083610c9b565b610ce4610cdc82610cbd565b848454610c3f565b825550505050565b600090565b610cf9610cec565b610d04818484610cc7565b505050565b5b81811015610d2857610d1d600082610cf1565b600181019050610d0a565b5050565b601f821115610d6d57610d3e81610c0d565b610d4784610c22565b81016020851015610d56578190505b610d6a610d6285610c22565b830182610d09565b50505b505050565b600082821c905092915050565b6000610d9060001984600802610d72565b1980831691505092915050565b6000610da98383610d7f565b9150826002028217905092915050565b610dc282610885565b67ffffffffffffffff811115610ddb57610dda6106e5565b5b610de58254610bdc565b610df0828285610d2c565b600060209050601f831160018114610e235760008415610e11578287015190505b610e1b8582610d9d565b865550610e83565b601f198416610e3186610c0d565b60005b82811015610e5957848901518255600182019150602085019450602081019050610e34565b86831015610e765784890151610e72601f891682610d7f565b8355505b6001600288020188555050505b505050505050565b7f4e487b7100000000000000000000000000000000000000000000000000000000600052603260045260246000fd5b7f4e487b7100000000000000000000000000000000000000000000000000000000600052601160045260246000fd5b6000610ef4826109e8565b91507fffffffffffffffffffffffffffffffffffffffffffffffffffffffffffffffff8203610f2657610f25610eba565b5b60018201905091905056fea2646970667358221220ac956907cdaea91e37fb5c9d44c5833e53228431140f5c414cf4f13158c5e6de64736f6c63430008140033",
  "linkReferences": {},
  "deployedLinkReferences": {}
}